{
  "_format": "hh-sol-artifact-1",
  "contractName": "GovernanceToken",
  "sourceName": "contracts/GovernanceToken.sol",
  "abi": [
    {
      "inputs": [],
      "stateMutability": "nonpayable",
      "type": "constructor"
    },
    {
      "anonymous": false,
      "inputs": [
        {
          "indexed": true,
          "internalType": "address",
          "name": "owner",
          "type": "address"
        },
        {
          "indexed": true,
          "internalType": "address",
          "name": "spender",
          "type": "address"
        },
        {
          "indexed": false,
          "internalType": "uint256",
          "name": "value",
          "type": "uint256"
        }
      ],
      "name": "Approval",
      "type": "event"
    },
    {
      "anonymous": false,
      "inputs": [
        {
          "indexed": true,
          "internalType": "address",
          "name": "delegator",
          "type": "address"
        },
        {
          "indexed": true,
          "internalType": "address",
          "name": "fromDelegate",
          "type": "address"
        },
        {
          "indexed": true,
          "internalType": "address",
          "name": "toDelegate",
          "type": "address"
        }
      ],
      "name": "DelegateChanged",
      "type": "event"
    },
    {
      "anonymous": false,
      "inputs": [
        {
          "indexed": true,
          "internalType": "address",
          "name": "delegate",
          "type": "address"
        },
        {
          "indexed": false,
          "internalType": "uint256",
          "name": "previousBalance",
          "type": "uint256"
        },
        {
          "indexed": false,
          "internalType": "uint256",
          "name": "newBalance",
          "type": "uint256"
        }
      ],
      "name": "DelegateVotesChanged",
      "type": "event"
    },
    {
      "anonymous": false,
      "inputs": [
        {
          "indexed": true,
          "internalType": "address",
          "name": "from",
          "type": "address"
        },
        {
          "indexed": true,
          "internalType": "address",
          "name": "to",
          "type": "address"
        },
        {
          "indexed": false,
          "internalType": "uint256",
          "name": "value",
          "type": "uint256"
        }
      ],
      "name": "Transfer",
      "type": "event"
    },
    {
      "inputs": [],
      "name": "DOMAIN_SEPARATOR",
      "outputs": [
        {
          "internalType": "bytes32",
          "name": "",
          "type": "bytes32"
        }
      ],
      "stateMutability": "view",
      "type": "function"
    },
    {
      "inputs": [
        {
          "internalType": "address",
          "name": "owner",
          "type": "address"
        },
        {
          "internalType": "address",
          "name": "spender",
          "type": "address"
        }
      ],
      "name": "allowance",
      "outputs": [
        {
          "internalType": "uint256",
          "name": "",
          "type": "uint256"
        }
      ],
      "stateMutability": "view",
      "type": "function"
    },
    {
      "inputs": [
        {
          "internalType": "address",
          "name": "spender",
          "type": "address"
        },
        {
          "internalType": "uint256",
          "name": "amount",
          "type": "uint256"
        }
      ],
      "name": "approve",
      "outputs": [
        {
          "internalType": "bool",
          "name": "",
          "type": "bool"
        }
      ],
      "stateMutability": "nonpayable",
      "type": "function"
    },
    {
      "inputs": [
        {
          "internalType": "address",
          "name": "account",
          "type": "address"
        }
      ],
      "name": "balanceOf",
      "outputs": [
        {
          "internalType": "uint256",
          "name": "",
          "type": "uint256"
        }
      ],
      "stateMutability": "view",
      "type": "function"
    },
    {
      "inputs": [
        {
          "internalType": "address",
          "name": "account",
          "type": "address"
        },
        {
          "internalType": "uint32",
          "name": "pos",
          "type": "uint32"
        }
      ],
      "name": "checkpoints",
      "outputs": [
        {
          "components": [
            {
              "internalType": "uint32",
              "name": "fromBlock",
              "type": "uint32"
            },
            {
              "internalType": "uint224",
              "name": "votes",
              "type": "uint224"
            }
          ],
          "internalType": "struct ERC20Votes.Checkpoint",
          "name": "",
          "type": "tuple"
        }
      ],
      "stateMutability": "view",
      "type": "function"
    },
    {
      "inputs": [],
      "name": "decimals",
      "outputs": [
        {
          "internalType": "uint8",
          "name": "",
          "type": "uint8"
        }
      ],
      "stateMutability": "view",
      "type": "function"
    },
    {
      "inputs": [
        {
          "internalType": "address",
          "name": "spender",
          "type": "address"
        },
        {
          "internalType": "uint256",
          "name": "subtractedValue",
          "type": "uint256"
        }
      ],
      "name": "decreaseAllowance",
      "outputs": [
        {
          "internalType": "bool",
          "name": "",
          "type": "bool"
        }
      ],
      "stateMutability": "nonpayable",
      "type": "function"
    },
    {
      "inputs": [
        {
          "internalType": "address",
          "name": "delegatee",
          "type": "address"
        }
      ],
      "name": "delegate",
      "outputs": [],
      "stateMutability": "nonpayable",
      "type": "function"
    },
    {
      "inputs": [
        {
          "internalType": "address",
          "name": "delegatee",
          "type": "address"
        },
        {
          "internalType": "uint256",
          "name": "nonce",
          "type": "uint256"
        },
        {
          "internalType": "uint256",
          "name": "expiry",
          "type": "uint256"
        },
        {
          "internalType": "uint8",
          "name": "v",
          "type": "uint8"
        },
        {
          "internalType": "bytes32",
          "name": "r",
          "type": "bytes32"
        },
        {
          "internalType": "bytes32",
          "name": "s",
          "type": "bytes32"
        }
      ],
      "name": "delegateBySig",
      "outputs": [],
      "stateMutability": "nonpayable",
      "type": "function"
    },
    {
      "inputs": [
        {
          "internalType": "address",
          "name": "account",
          "type": "address"
        }
      ],
      "name": "delegates",
      "outputs": [
        {
          "internalType": "address",
          "name": "",
          "type": "address"
        }
      ],
      "stateMutability": "view",
      "type": "function"
    },
    {
      "inputs": [
        {
          "internalType": "uint256",
          "name": "blockNumber",
          "type": "uint256"
        }
      ],
      "name": "getPastTotalSupply",
      "outputs": [
        {
          "internalType": "uint256",
          "name": "",
          "type": "uint256"
        }
      ],
      "stateMutability": "view",
      "type": "function"
    },
    {
      "inputs": [
        {
          "internalType": "address",
          "name": "account",
          "type": "address"
        },
        {
          "internalType": "uint256",
          "name": "blockNumber",
          "type": "uint256"
        }
      ],
      "name": "getPastVotes",
      "outputs": [
        {
          "internalType": "uint256",
          "name": "",
          "type": "uint256"
        }
      ],
      "stateMutability": "view",
      "type": "function"
    },
    {
      "inputs": [
        {
          "internalType": "address",
          "name": "account",
          "type": "address"
        }
      ],
      "name": "getVotes",
      "outputs": [
        {
          "internalType": "uint256",
          "name": "",
          "type": "uint256"
        }
      ],
      "stateMutability": "view",
      "type": "function"
    },
    {
      "inputs": [
        {
          "internalType": "address",
          "name": "spender",
          "type": "address"
        },
        {
          "internalType": "uint256",
          "name": "addedValue",
          "type": "uint256"
        }
      ],
      "name": "increaseAllowance",
      "outputs": [
        {
          "internalType": "bool",
          "name": "",
          "type": "bool"
        }
      ],
      "stateMutability": "nonpayable",
      "type": "function"
    },
    {
      "inputs": [],
      "name": "name",
      "outputs": [
        {
          "internalType": "string",
          "name": "",
          "type": "string"
        }
      ],
      "stateMutability": "view",
      "type": "function"
    },
    {
      "inputs": [
        {
          "internalType": "address",
          "name": "owner",
          "type": "address"
        }
      ],
      "name": "nonces",
      "outputs": [
        {
          "internalType": "uint256",
          "name": "",
          "type": "uint256"
        }
      ],
      "stateMutability": "view",
      "type": "function"
    },
    {
      "inputs": [
        {
          "internalType": "address",
          "name": "account",
          "type": "address"
        }
      ],
      "name": "numCheckpoints",
      "outputs": [
        {
          "internalType": "uint32",
          "name": "",
          "type": "uint32"
        }
      ],
      "stateMutability": "view",
      "type": "function"
    },
    {
      "inputs": [
        {
          "internalType": "address",
          "name": "owner",
          "type": "address"
        },
        {
          "internalType": "address",
          "name": "spender",
          "type": "address"
        },
        {
          "internalType": "uint256",
          "name": "value",
          "type": "uint256"
        },
        {
          "internalType": "uint256",
          "name": "deadline",
          "type": "uint256"
        },
        {
          "internalType": "uint8",
          "name": "v",
          "type": "uint8"
        },
        {
          "internalType": "bytes32",
          "name": "r",
          "type": "bytes32"
        },
        {
          "internalType": "bytes32",
          "name": "s",
          "type": "bytes32"
        }
      ],
      "name": "permit",
      "outputs": [],
      "stateMutability": "nonpayable",
      "type": "function"
    },
    {
      "inputs": [],
      "name": "s_maxSupply",
      "outputs": [
        {
          "internalType": "uint256",
          "name": "",
          "type": "uint256"
        }
      ],
      "stateMutability": "view",
      "type": "function"
    },
    {
      "inputs": [],
      "name": "symbol",
      "outputs": [
        {
          "internalType": "string",
          "name": "",
          "type": "string"
        }
      ],
      "stateMutability": "view",
      "type": "function"
    },
    {
      "inputs": [],
      "name": "totalSupply",
      "outputs": [
        {
          "internalType": "uint256",
          "name": "",
          "type": "uint256"
        }
      ],
      "stateMutability": "view",
      "type": "function"
    },
    {
      "inputs": [
        {
          "internalType": "address",
          "name": "to",
          "type": "address"
        },
        {
          "internalType": "uint256",
          "name": "amount",
          "type": "uint256"
        }
      ],
      "name": "transfer",
      "outputs": [
        {
          "internalType": "bool",
          "name": "",
          "type": "bool"
        }
      ],
      "stateMutability": "nonpayable",
      "type": "function"
    },
    {
      "inputs": [
        {
          "internalType": "address",
          "name": "from",
          "type": "address"
        },
        {
          "internalType": "address",
          "name": "to",
          "type": "address"
        },
        {
          "internalType": "uint256",
          "name": "amount",
          "type": "uint256"
        }
      ],
      "name": "transferFrom",
      "outputs": [
        {
          "internalType": "bool",
          "name": "",
          "type": "bool"
        }
      ],
      "stateMutability": "nonpayable",
      "type": "function"
    }
  ],
  "bytecode": "0x610140604052633b9aca00600a553480156200001a57600080fd5b506040518060400160405280601081526020017f476f7665726e616e636520546f6b656e00000000000000000000000000000000815250806040518060400160405280600181526020017f31000000000000000000000000000000000000000000000000000000000000008152506040518060400160405280600f81526020017f476f7665726e616e6365546f6b656e00000000000000000000000000000000008152506040518060400160405280600281526020017f475400000000000000000000000000000000000000000000000000000000000081525081600390805190602001906200010c92919062000b59565b5080600490805190602001906200012592919062000b59565b50505060008280519060200120905060008280519060200120905060007f8b73c3c69bb8fe3d512ecc4cf759cc79239f7b179b0ffacaa9a75d522b39400f90508260e081815250508161010081815250504660a0818152505062000191818484620001f560201b60201c565b608081815250503073ffffffffffffffffffffffffffffffffffffffff1660c08173ffffffffffffffffffffffffffffffffffffffff1681525050806101208181525050505050505050620001ef33600a546200023160201b60201c565b620010d1565b600083838346306040516020016200021295949392919062000c84565b6040516020818303038152906040528051906020012090509392505050565b6200024882826200024c60201b62000eaa1760201c565b5050565b6200026382826200030a60201b62000f371760201c565b620002736200048360201b60201c565b7bffffffffffffffffffffffffffffffffffffffffffffffffffffffff16620002a1620004a760201b60201c565b1115620002e5576040517f08c379a0000000000000000000000000000000000000000000000000000000008152600401620002dc9062000d68565b60405180910390fd5b620003046009620004b160201b620010971783620004c960201b60201c565b50505050565b600073ffffffffffffffffffffffffffffffffffffffff168273ffffffffffffffffffffffffffffffffffffffff1614156200037d576040517f08c379a0000000000000000000000000000000000000000000000000000000008152600401620003749062000dda565b60405180910390fd5b62000391600083836200077a60201b60201c565b8060026000828254620003a5919062000e2b565b92505081905550806000808473ffffffffffffffffffffffffffffffffffffffff1673ffffffffffffffffffffffffffffffffffffffff1681526020019081526020016000206000828254620003fc919062000e2b565b925050819055508173ffffffffffffffffffffffffffffffffffffffff16600073ffffffffffffffffffffffffffffffffffffffff167fddf252ad1be2c89b69c2b068fc378daa952ba7f163c4a11628f55a4df523b3ef8360405162000463919062000e88565b60405180910390a36200047f600083836200077f60201b60201c565b5050565b60007bffffffffffffffffffffffffffffffffffffffffffffffffffffffff905090565b6000600254905090565b60008183620004c1919062000e2b565b905092915050565b600080600085805490509050600081146200053e5785600182620004ee919062000ea5565b8154811062000502576200050162000ee0565b5b9060005260206000200160000160049054906101000a90047bffffffffffffffffffffffffffffffffffffffffffffffffffffffff1662000541565b60005b7bffffffffffffffffffffffffffffffffffffffffffffffffffffffff1692506200056d83858760201c565b9150600081118015620005c6575043866001836200058c919062000ea5565b81548110620005a0576200059f62000ee0565b5b9060005260206000200160000160009054906101000a900463ffffffff1663ffffffff16145b156200066757620005e2826200079c60201b620010ad1760201c565b86600183620005f2919062000ea5565b8154811062000606576200060562000ee0565b5b9060005260206000200160000160046101000a8154817bffffffffffffffffffffffffffffffffffffffffffffffffffffffff02191690837bffffffffffffffffffffffffffffffffffffffffffffffffffffffff16021790555062000771565b85604051806040016040528062000689436200080a60201b620011181760201c565b63ffffffff168152602001620006aa856200079c60201b620010ad1760201c565b7bffffffffffffffffffffffffffffffffffffffffffffffffffffffff168152509080600181540180825580915050600190039060005260206000200160009091909190915060008201518160000160006101000a81548163ffffffff021916908363ffffffff16021790555060208201518160000160046101000a8154817bffffffffffffffffffffffffffffffffffffffffffffffffffffffff02191690837bffffffffffffffffffffffffffffffffffffffffffffffffffffffff16021790555050505b50935093915050565b505050565b620007978383836200086060201b6200116b1760201c565b505050565b60007bffffffffffffffffffffffffffffffffffffffffffffffffffffffff801682111562000802576040517f08c379a0000000000000000000000000000000000000000000000000000000008152600401620007f99062000f85565b60405180910390fd5b819050919050565b600063ffffffff801682111562000858576040517f08c379a00000000000000000000000000000000000000000000000000000000081526004016200084f906200101d565b60405180910390fd5b819050919050565b62000878838383620008b060201b620011961760201c565b620008ab6200088d84620008b560201b60201c565b6200089e84620008b560201b60201c565b836200091e60201b60201c565b505050565b505050565b6000600760008373ffffffffffffffffffffffffffffffffffffffff1673ffffffffffffffffffffffffffffffffffffffff16815260200190815260200160002060009054906101000a900473ffffffffffffffffffffffffffffffffffffffff169050919050565b8173ffffffffffffffffffffffffffffffffffffffff168373ffffffffffffffffffffffffffffffffffffffff16141580156200095b5750600081115b1562000b3c57600073ffffffffffffffffffffffffffffffffffffffff168373ffffffffffffffffffffffffffffffffffffffff161462000a4e57600080620009f5600860008773ffffffffffffffffffffffffffffffffffffffff1673ffffffffffffffffffffffffffffffffffffffff16815260200190815260200160002062000b4160201b6200119b1785620004c960201b60201c565b915091508473ffffffffffffffffffffffffffffffffffffffff167fdec2bacdd2f05b59de34da9b523dff8be42e5e38e818c82fdb0bae774387a724838360405162000a439291906200103f565b60405180910390a250505b600073ffffffffffffffffffffffffffffffffffffffff168273ffffffffffffffffffffffffffffffffffffffff161462000b3b5760008062000ae2600860008673ffffffffffffffffffffffffffffffffffffffff1673ffffffffffffffffffffffffffffffffffffffff168152602001908152602001600020620004b160201b620010971785620004c960201b60201c565b915091508373ffffffffffffffffffffffffffffffffffffffff167fdec2bacdd2f05b59de34da9b523dff8be42e5e38e818c82fdb0bae774387a724838360405162000b309291906200103f565b60405180910390a250505b5b505050565b6000818362000b51919062000ea5565b905092915050565b82805462000b67906200109b565b90600052602060002090601f01602090048101928262000b8b576000855562000bd7565b82601f1062000ba657805160ff191683800117855562000bd7565b8280016001018555821562000bd7579182015b8281111562000bd657825182559160200191906001019062000bb9565b5b50905062000be6919062000bea565b5090565b5b8082111562000c0557600081600090555060010162000beb565b5090565b6000819050919050565b62000c1e8162000c09565b82525050565b6000819050919050565b62000c398162000c24565b82525050565b600073ffffffffffffffffffffffffffffffffffffffff82169050919050565b600062000c6c8262000c3f565b9050919050565b62000c7e8162000c5f565b82525050565b600060a08201905062000c9b600083018862000c13565b62000caa602083018762000c13565b62000cb9604083018662000c13565b62000cc8606083018562000c2e565b62000cd7608083018462000c73565b9695505050505050565b600082825260208201905092915050565b7f4552433230566f7465733a20746f74616c20737570706c79207269736b73206f60008201527f766572666c6f77696e6720766f74657300000000000000000000000000000000602082015250565b600062000d5060308362000ce1565b915062000d5d8262000cf2565b604082019050919050565b6000602082019050818103600083015262000d838162000d41565b9050919050565b7f45524332303a206d696e7420746f20746865207a65726f206164647265737300600082015250565b600062000dc2601f8362000ce1565b915062000dcf8262000d8a565b602082019050919050565b6000602082019050818103600083015262000df58162000db3565b9050919050565b7f4e487b7100000000000000000000000000000000000000000000000000000000600052601160045260246000fd5b600062000e388262000c24565b915062000e458362000c24565b9250827fffffffffffffffffffffffffffffffffffffffffffffffffffffffffffffffff0382111562000e7d5762000e7c62000dfc565b5b828201905092915050565b600060208201905062000e9f600083018462000c2e565b92915050565b600062000eb28262000c24565b915062000ebf8362000c24565b92508282101562000ed55762000ed462000dfc565b5b828203905092915050565b7f4e487b7100000000000000000000000000000000000000000000000000000000600052603260045260246000fd5b7f53616665436173743a2076616c756520646f65736e27742066697420696e203260008201527f3234206269747300000000000000000000000000000000000000000000000000602082015250565b600062000f6d60278362000ce1565b915062000f7a8262000f0f565b604082019050919050565b6000602082019050818103600083015262000fa08162000f5e565b9050919050565b7f53616665436173743a2076616c756520646f65736e27742066697420696e203360008201527f3220626974730000000000000000000000000000000000000000000000000000602082015250565b60006200100560268362000ce1565b9150620010128262000fa7565b604082019050919050565b60006020820190508181036000830152620010388162000ff6565b9050919050565b600060408201905062001056600083018562000c2e565b62001065602083018462000c2e565b9392505050565b7f4e487b7100000000000000000000000000000000000000000000000000000000600052602260045260246000fd5b60006002820490506001821680620010b457607f821691505b60208210811415620010cb57620010ca6200106c565b5b50919050565b60805160a05160c05160e051610100516101205161375e62001121600039600061173f015260006117810152600061176001526000611695015260006116eb01526000611714015261375e6000f3fe608060405234801561001057600080fd5b506004361061014d5760003560e01c80636fcfff45116100c3578063a457c2d71161007c578063a457c2d714610402578063a9059cbb14610432578063c3cda52014610462578063d505accf1461047e578063dd62ed3e1461049a578063f1127ed8146104ca5761014d565b80636fcfff45146102f457806370a08231146103245780637ecebe00146103545780638e539e8c1461038457806395d89b41146103b45780639ab24eb0146103d25761014d565b80633644e515116101155780633644e5151461020c578063395093511461022a5780633a46b1a81461025a578063587cde1e1461028a5780635c19a95c146102ba5780635d641847146102d65761014d565b806306fdde0314610152578063095ea7b31461017057806318160ddd146101a057806323b872dd146101be578063313ce567146101ee575b600080fd5b61015a6104fa565b604051610167919061238e565b60405180910390f35b61018a60048036038101906101859190612449565b61058c565b60405161019791906124a4565b60405180910390f35b6101a86105af565b6040516101b591906124ce565b60405180910390f35b6101d860048036038101906101d391906124e9565b6105b9565b6040516101e591906124a4565b60405180910390f35b6101f66105e8565b6040516102039190612558565b60405180910390f35b6102146105f1565b604051610221919061258c565b60405180910390f35b610244600480360381019061023f9190612449565b610600565b60405161025191906124a4565b60405180910390f35b610274600480360381019061026f9190612449565b610637565b60405161028191906124ce565b60405180910390f35b6102a4600480360381019061029f91906125a7565b6106cb565b6040516102b191906125e3565b60405180910390f35b6102d460048036038101906102cf91906125a7565b610734565b005b6102de610748565b6040516102eb91906124ce565b60405180910390f35b61030e600480360381019061030991906125a7565b61074e565b60405161031b919061261d565b60405180910390f35b61033e600480360381019061033991906125a7565b6107a2565b60405161034b91906124ce565b60405180910390f35b61036e600480360381019061036991906125a7565b6107ea565b60405161037b91906124ce565b60405180910390f35b61039e60048036038101906103999190612638565b61083a565b6040516103ab91906124ce565b60405180910390f35b6103bc610890565b6040516103c9919061238e565b60405180910390f35b6103ec60048036038101906103e791906125a7565b610922565b6040516103f991906124ce565b60405180910390f35b61041c60048036038101906104179190612449565b610a33565b60405161042991906124a4565b60405180910390f35b61044c60048036038101906104479190612449565b610aaa565b60405161045991906124a4565b60405180910390f35b61047c600480360381019061047791906126bd565b610acd565b005b6104986004803603810190610493919061274a565b610bd1565b005b6104b460048036038101906104af91906127ec565b610d13565b6040516104c191906124ce565b60405180910390f35b6104e460048036038101906104df9190612858565b610d9a565b6040516104f1919061290d565b60405180910390f35b60606003805461050990612957565b80601f016020809104026020016040519081016040528092919081815260200182805461053590612957565b80156105825780601f1061055757610100808354040283529160200191610582565b820191906000526020600020905b81548152906001019060200180831161056557829003601f168201915b5050505050905090565b6000806105976111b1565b90506105a48185856111b9565b600191505092915050565b6000600254905090565b6000806105c46111b1565b90506105d1858285611384565b6105dc858585611410565b60019150509392505050565b60006012905090565b60006105fb611691565b905090565b60008061060b6111b1565b905061062c81858561061d8589610d13565b61062791906129b8565b6111b9565b600191505092915050565b600043821061067b576040517f08c379a000000000000000000000000000000000000000000000000000000000815260040161067290612a5a565b60405180910390fd5b6106c3600860008573ffffffffffffffffffffffffffffffffffffffff1673ffffffffffffffffffffffffffffffffffffffff168152602001908152602001600020836117ab565b905092915050565b6000600760008373ffffffffffffffffffffffffffffffffffffffff1673ffffffffffffffffffffffffffffffffffffffff16815260200190815260200160002060009054906101000a900473ffffffffffffffffffffffffffffffffffffffff169050919050565b61074561073f6111b1565b826118b7565b50565b600a5481565b600061079b600860008473ffffffffffffffffffffffffffffffffffffffff1673ffffffffffffffffffffffffffffffffffffffff16815260200190815260200160002080549050611118565b9050919050565b60008060008373ffffffffffffffffffffffffffffffffffffffff1673ffffffffffffffffffffffffffffffffffffffff168152602001908152602001600020549050919050565b6000610833600560008473ffffffffffffffffffffffffffffffffffffffff1673ffffffffffffffffffffffffffffffffffffffff1681526020019081526020016000206119d1565b9050919050565b600043821061087e576040517f08c379a000000000000000000000000000000000000000000000000000000000815260040161087590612a5a565b60405180910390fd5b6108896009836117ab565b9050919050565b60606004805461089f90612957565b80601f01602080910402602001604051908101604052809291908181526020018280546108cb90612957565b80156109185780601f106108ed57610100808354040283529160200191610918565b820191906000526020600020905b8154815290600101906020018083116108fb57829003601f168201915b5050505050905090565b600080600860008473ffffffffffffffffffffffffffffffffffffffff1673ffffffffffffffffffffffffffffffffffffffff16815260200190815260200160002080549050905060008114610a0a57600860008473ffffffffffffffffffffffffffffffffffffffff1673ffffffffffffffffffffffffffffffffffffffff1681526020019081526020016000206001826109be9190612a7a565b815481106109cf576109ce612aae565b5b9060005260206000200160000160049054906101000a90047bffffffffffffffffffffffffffffffffffffffffffffffffffffffff16610a0d565b60005b7bffffffffffffffffffffffffffffffffffffffffffffffffffffffff16915050919050565b600080610a3e6111b1565b90506000610a4c8286610d13565b905083811015610a91576040517f08c379a0000000000000000000000000000000000000000000000000000000008152600401610a8890612b4f565b60405180910390fd5b610a9e82868684036111b9565b60019250505092915050565b600080610ab56111b1565b9050610ac2818585611410565b600191505092915050565b83421115610b10576040517f08c379a0000000000000000000000000000000000000000000000000000000008152600401610b0790612bbb565b60405180910390fd5b6000610b72610b6a7fe48329057bfd03d55e49b547132e39cffd9c1820ad7b9d4c5307691425d15adf898989604051602001610b4f9493929190612bdb565b604051602081830303815290604052805190602001206119df565b8585856119f9565b9050610b7d81611a24565b8614610bbe576040517f08c379a0000000000000000000000000000000000000000000000000000000008152600401610bb590612c6c565b60405180910390fd5b610bc881886118b7565b50505050505050565b83421115610c14576040517f08c379a0000000000000000000000000000000000000000000000000000000008152600401610c0b90612cd8565b60405180910390fd5b60007f6e71edae12b1b97f4d1f60370fef10105fa2faae0126114a169c64845d6126c9888888610c438c611a24565b89604051602001610c5996959493929190612cf8565b6040516020818303038152906040528051906020012090506000610c7c826119df565b90506000610c8c828787876119f9565b90508973ffffffffffffffffffffffffffffffffffffffff168173ffffffffffffffffffffffffffffffffffffffff1614610cfc576040517f08c379a0000000000000000000000000000000000000000000000000000000008152600401610cf390612da5565b60405180910390fd5b610d078a8a8a6111b9565b50505050505050505050565b6000600160008473ffffffffffffffffffffffffffffffffffffffff1673ffffffffffffffffffffffffffffffffffffffff16815260200190815260200160002060008373ffffffffffffffffffffffffffffffffffffffff1673ffffffffffffffffffffffffffffffffffffffff16815260200190815260200160002054905092915050565b610da26122b7565b600860008473ffffffffffffffffffffffffffffffffffffffff1673ffffffffffffffffffffffffffffffffffffffff1681526020019081526020016000208263ffffffff1681548110610df957610df8612aae565b5b906000526020600020016040518060400160405290816000820160009054906101000a900463ffffffff1663ffffffff1663ffffffff1681526020016000820160049054906101000a90047bffffffffffffffffffffffffffffffffffffffffffffffffffffffff167bffffffffffffffffffffffffffffffffffffffffffffffffffffffff167bffffffffffffffffffffffffffffffffffffffffffffffffffffffff1681525050905092915050565b610eb48282610f37565b610ebc611a82565b7bffffffffffffffffffffffffffffffffffffffffffffffffffffffff16610ee26105af565b1115610f23576040517f08c379a0000000000000000000000000000000000000000000000000000000008152600401610f1a90612e37565b60405180910390fd5b610f31600961109783611aa6565b50505050565b600073ffffffffffffffffffffffffffffffffffffffff168273ffffffffffffffffffffffffffffffffffffffff161415610fa7576040517f08c379a0000000000000000000000000000000000000000000000000000000008152600401610f9e90612ea3565b60405180910390fd5b610fb360008383611d1e565b8060026000828254610fc591906129b8565b92505081905550806000808473ffffffffffffffffffffffffffffffffffffffff1673ffffffffffffffffffffffffffffffffffffffff168152602001908152602001600020600082825461101a91906129b8565b925050819055508173ffffffffffffffffffffffffffffffffffffffff16600073ffffffffffffffffffffffffffffffffffffffff167fddf252ad1be2c89b69c2b068fc378daa952ba7f163c4a11628f55a4df523b3ef8360405161107f91906124ce565b60405180910390a361109360008383611d23565b5050565b600081836110a591906129b8565b905092915050565b60007bffffffffffffffffffffffffffffffffffffffffffffffffffffffff8016821115611110576040517f08c379a000000000000000000000000000000000000000000000000000000000815260040161110790612f35565b60405180910390fd5b819050919050565b600063ffffffff8016821115611163576040517f08c379a000000000000000000000000000000000000000000000000000000000815260040161115a90612fc7565b60405180910390fd5b819050919050565b611176838383611196565b611191611182846106cb565b61118b846106cb565b83611d33565b505050565b505050565b600081836111a99190612a7a565b905092915050565b600033905090565b600073ffffffffffffffffffffffffffffffffffffffff168373ffffffffffffffffffffffffffffffffffffffff161415611229576040517f08c379a000000000000000000000000000000000000000000000000000000000815260040161122090613059565b60405180910390fd5b600073ffffffffffffffffffffffffffffffffffffffff168273ffffffffffffffffffffffffffffffffffffffff161415611299576040517f08c379a0000000000000000000000000000000000000000000000000000000008152600401611290906130eb565b60405180910390fd5b80600160008573ffffffffffffffffffffffffffffffffffffffff1673ffffffffffffffffffffffffffffffffffffffff16815260200190815260200160002060008473ffffffffffffffffffffffffffffffffffffffff1673ffffffffffffffffffffffffffffffffffffffff168152602001908152602001600020819055508173ffffffffffffffffffffffffffffffffffffffff168373ffffffffffffffffffffffffffffffffffffffff167f8c5be1e5ebec7d5bd14f71427d1e84f3dd0314c0f7b2291e5b200ac8c7c3b9258360405161137791906124ce565b60405180910390a3505050565b60006113908484610d13565b90507fffffffffffffffffffffffffffffffffffffffffffffffffffffffffffffffff811461140a57818110156113fc576040517f08c379a00000000000000000000000000000000000000000000000000000000081526004016113f390613157565b60405180910390fd5b61140984848484036111b9565b5b50505050565b600073ffffffffffffffffffffffffffffffffffffffff168373ffffffffffffffffffffffffffffffffffffffff161415611480576040517f08c379a0000000000000000000000000000000000000000000000000000000008152600401611477906131e9565b60405180910390fd5b600073ffffffffffffffffffffffffffffffffffffffff168273ffffffffffffffffffffffffffffffffffffffff1614156114f0576040517f08c379a00000000000000000000000000000000000000000000000000000000081526004016114e79061327b565b60405180910390fd5b6114fb838383611d1e565b60008060008573ffffffffffffffffffffffffffffffffffffffff1673ffffffffffffffffffffffffffffffffffffffff16815260200190815260200160002054905081811015611581576040517f08c379a00000000000000000000000000000000000000000000000000000000081526004016115789061330d565b60405180910390fd5b8181036000808673ffffffffffffffffffffffffffffffffffffffff1673ffffffffffffffffffffffffffffffffffffffff16815260200190815260200160002081905550816000808573ffffffffffffffffffffffffffffffffffffffff1673ffffffffffffffffffffffffffffffffffffffff168152602001908152602001600020600082825461161491906129b8565b925050819055508273ffffffffffffffffffffffffffffffffffffffff168473ffffffffffffffffffffffffffffffffffffffff167fddf252ad1be2c89b69c2b068fc378daa952ba7f163c4a11628f55a4df523b3ef8460405161167891906124ce565b60405180910390a361168b848484611d23565b50505050565b60007f000000000000000000000000000000000000000000000000000000000000000073ffffffffffffffffffffffffffffffffffffffff163073ffffffffffffffffffffffffffffffffffffffff1614801561170d57507f000000000000000000000000000000000000000000000000000000000000000046145b1561173a577f000000000000000000000000000000000000000000000000000000000000000090506117a8565b6117a57f00000000000000000000000000000000000000000000000000000000000000007f00000000000000000000000000000000000000000000000000000000000000007f0000000000000000000000000000000000000000000000000000000000000000611f2c565b90505b90565b6000808380549050905060005b8181101561182a5760006117cc8284611f66565b9050848682815481106117e2576117e1612aae565b5b9060005260206000200160000160009054906101000a900463ffffffff1663ffffffff16111561181457809250611824565b60018161182191906129b8565b91505b506117b8565b6000821461188c57846001836118409190612a7a565b8154811061185157611850612aae565b5b9060005260206000200160000160049054906101000a90047bffffffffffffffffffffffffffffffffffffffffffffffffffffffff1661188f565b60005b7bffffffffffffffffffffffffffffffffffffffffffffffffffffffff169250505092915050565b60006118c2836106cb565b905060006118cf846107a2565b905082600760008673ffffffffffffffffffffffffffffffffffffffff1673ffffffffffffffffffffffffffffffffffffffff16815260200190815260200160002060006101000a81548173ffffffffffffffffffffffffffffffffffffffff021916908373ffffffffffffffffffffffffffffffffffffffff1602179055508273ffffffffffffffffffffffffffffffffffffffff168273ffffffffffffffffffffffffffffffffffffffff168573ffffffffffffffffffffffffffffffffffffffff167f3134e8a2e6d97e929a7e54011ea5485d7d196dd5f0ba4d4ef95803e8e3fc257f60405160405180910390a46119cb828483611d33565b50505050565b600081600001549050919050565b60006119f26119ec611691565b83611f8c565b9050919050565b6000806000611a0a87878787611fbf565b91509150611a17816120cc565b8192505050949350505050565b600080600560008473ffffffffffffffffffffffffffffffffffffffff1673ffffffffffffffffffffffffffffffffffffffff1681526020019081526020016000209050611a71816119d1565b9150611a7c816122a1565b50919050565b60007bffffffffffffffffffffffffffffffffffffffffffffffffffffffff905090565b60008060008580549050905060008114611b145785600182611ac89190612a7a565b81548110611ad957611ad8612aae565b5b9060005260206000200160000160049054906101000a90047bffffffffffffffffffffffffffffffffffffffffffffffffffffffff16611b17565b60005b7bffffffffffffffffffffffffffffffffffffffffffffffffffffffff169250611b4583858763ffffffff16565b9150600081118015611b9857504386600183611b619190612a7a565b81548110611b7257611b71612aae565b5b9060005260206000200160000160009054906101000a900463ffffffff1663ffffffff16145b15611c2557611ba6826110ad565b86600183611bb49190612a7a565b81548110611bc557611bc4612aae565b5b9060005260206000200160000160046101000a8154817bffffffffffffffffffffffffffffffffffffffffffffffffffffffff02191690837bffffffffffffffffffffffffffffffffffffffffffffffffffffffff160217905550611d15565b856040518060400160405280611c3a43611118565b63ffffffff168152602001611c4e856110ad565b7bffffffffffffffffffffffffffffffffffffffffffffffffffffffff168152509080600181540180825580915050600190039060005260206000200160009091909190915060008201518160000160006101000a81548163ffffffff021916908363ffffffff16021790555060208201518160000160046101000a8154817bffffffffffffffffffffffffffffffffffffffffffffffffffffffff02191690837bffffffffffffffffffffffffffffffffffffffffffffffffffffffff16021790555050505b50935093915050565b505050565b611d2e83838361116b565b505050565b8173ffffffffffffffffffffffffffffffffffffffff168373ffffffffffffffffffffffffffffffffffffffff1614158015611d6f5750600081115b15611f2757600073ffffffffffffffffffffffffffffffffffffffff168373ffffffffffffffffffffffffffffffffffffffff1614611e4d57600080611df6600860008773ffffffffffffffffffffffffffffffffffffffff1673ffffffffffffffffffffffffffffffffffffffff16815260200190815260200160002061119b85611aa6565b915091508473ffffffffffffffffffffffffffffffffffffffff167fdec2bacdd2f05b59de34da9b523dff8be42e5e38e818c82fdb0bae774387a7248383604051611e4292919061332d565b60405180910390a250505b600073ffffffffffffffffffffffffffffffffffffffff168273ffffffffffffffffffffffffffffffffffffffff1614611f2657600080611ecf600860008673ffffffffffffffffffffffffffffffffffffffff1673ffffffffffffffffffffffffffffffffffffffff16815260200190815260200160002061109785611aa6565b915091508373ffffffffffffffffffffffffffffffffffffffff167fdec2bacdd2f05b59de34da9b523dff8be42e5e38e818c82fdb0bae774387a7248383604051611f1b92919061332d565b60405180910390a250505b5b505050565b60008383834630604051602001611f47959493929190613356565b6040516020818303038152906040528051906020012090509392505050565b60006002828418611f7791906133d8565b828416611f8491906129b8565b905092915050565b60008282604051602001611fa1929190613481565b60405160208183030381529060405280519060200120905092915050565b6000807f7fffffffffffffffffffffffffffffff5d576e7357a4501ddfe92f46681b20a08360001c1115611ffa5760006003915091506120c3565b601b8560ff16141580156120125750601c8560ff1614155b156120245760006004915091506120c3565b60006001878787876040516000815260200160405260405161204994939291906134b8565b6020604051602081039080840390855afa15801561206b573d6000803e3d6000fd5b505050602060405103519050600073ffffffffffffffffffffffffffffffffffffffff168173ffffffffffffffffffffffffffffffffffffffff1614156120ba576000600192509250506120c3565b80600092509250505b94509492505050565b600060048111156120e0576120df6134fd565b5b8160048111156120f3576120f26134fd565b5b14156120fe5761229e565b60016004811115612112576121116134fd565b5b816004811115612125576121246134fd565b5b1415612166576040517f08c379a000000000000000000000000000000000000000000000000000000000815260040161215d90613578565b60405180910390fd5b6002600481111561217a576121796134fd565b5b81600481111561218d5761218c6134fd565b5b14156121ce576040517f08c379a00000000000000000000000000000000000000000000000000000000081526004016121c5906135e4565b60405180910390fd5b600360048111156121e2576121e16134fd565b5b8160048111156121f5576121f46134fd565b5b1415612236576040517f08c379a000000000000000000000000000000000000000000000000000000000815260040161222d90613676565b60405180910390fd5b600480811115612249576122486134fd565b5b81600481111561225c5761225b6134fd565b5b141561229d576040517f08c379a000000000000000000000000000000000000000000000000000000000815260040161229490613708565b60405180910390fd5b5b50565b6001816000016000828254019250508190555050565b6040518060400160405280600063ffffffff16815260200160007bffffffffffffffffffffffffffffffffffffffffffffffffffffffff1681525090565b600081519050919050565b600082825260208201905092915050565b60005b8381101561232f578082015181840152602081019050612314565b8381111561233e576000848401525b50505050565b6000601f19601f8301169050919050565b6000612360826122f5565b61236a8185612300565b935061237a818560208601612311565b61238381612344565b840191505092915050565b600060208201905081810360008301526123a88184612355565b905092915050565b600080fd5b600073ffffffffffffffffffffffffffffffffffffffff82169050919050565b60006123e0826123b5565b9050919050565b6123f0816123d5565b81146123fb57600080fd5b50565b60008135905061240d816123e7565b92915050565b6000819050919050565b61242681612413565b811461243157600080fd5b50565b6000813590506124438161241d565b92915050565b600080604083850312156124605761245f6123b0565b5b600061246e858286016123fe565b925050602061247f85828601612434565b9150509250929050565b60008115159050919050565b61249e81612489565b82525050565b60006020820190506124b96000830184612495565b92915050565b6124c881612413565b82525050565b60006020820190506124e360008301846124bf565b92915050565b600080600060608486031215612502576125016123b0565b5b6000612510868287016123fe565b9350506020612521868287016123fe565b925050604061253286828701612434565b9150509250925092565b600060ff82169050919050565b6125528161253c565b82525050565b600060208201905061256d6000830184612549565b92915050565b6000819050919050565b61258681612573565b82525050565b60006020820190506125a1600083018461257d565b92915050565b6000602082840312156125bd576125bc6123b0565b5b60006125cb848285016123fe565b91505092915050565b6125dd816123d5565b82525050565b60006020820190506125f860008301846125d4565b92915050565b600063ffffffff82169050919050565b612617816125fe565b82525050565b6000602082019050612632600083018461260e565b92915050565b60006020828403121561264e5761264d6123b0565b5b600061265c84828501612434565b91505092915050565b61266e8161253c565b811461267957600080fd5b50565b60008135905061268b81612665565b92915050565b61269a81612573565b81146126a557600080fd5b50565b6000813590506126b781612691565b92915050565b60008060008060008060c087890312156126da576126d96123b0565b5b60006126e889828a016123fe565b96505060206126f989828a01612434565b955050604061270a89828a01612434565b945050606061271b89828a0161267c565b935050608061272c89828a016126a8565b92505060a061273d89828a016126a8565b9150509295509295509295565b600080600080600080600060e0888a031215612769576127686123b0565b5b60006127778a828b016123fe565b97505060206127888a828b016123fe565b96505060406127998a828b01612434565b95505060606127aa8a828b01612434565b94505060806127bb8a828b0161267c565b93505060a06127cc8a828b016126a8565b92505060c06127dd8a828b016126a8565b91505092959891949750929550565b60008060408385031215612803576128026123b0565b5b6000612811858286016123fe565b9250506020612822858286016123fe565b9150509250929050565b612835816125fe565b811461284057600080fd5b50565b6000813590506128528161282c565b92915050565b6000806040838503121561286f5761286e6123b0565b5b600061287d858286016123fe565b925050602061288e85828601612843565b9150509250929050565b6128a1816125fe565b82525050565b60007bffffffffffffffffffffffffffffffffffffffffffffffffffffffff82169050919050565b6128d8816128a7565b82525050565b6040820160008201516128f46000850182612898565b50602082015161290760208501826128cf565b50505050565b600060408201905061292260008301846128de565b92915050565b7f4e487b7100000000000000000000000000000000000000000000000000000000600052602260045260246000fd5b6000600282049050600182168061296f57607f821691505b6020821081141561298357612982612928565b5b50919050565b7f4e487b7100000000000000000000000000000000000000000000000000000000600052601160045260246000fd5b60006129c382612413565b91506129ce83612413565b9250827fffffffffffffffffffffffffffffffffffffffffffffffffffffffffffffffff03821115612a0357612a02612989565b5b828201905092915050565b7f4552433230566f7465733a20626c6f636b206e6f7420796574206d696e656400600082015250565b6000612a44601f83612300565b9150612a4f82612a0e565b602082019050919050565b60006020820190508181036000830152612a7381612a37565b9050919050565b6000612a8582612413565b9150612a9083612413565b925082821015612aa357612aa2612989565b5b828203905092915050565b7f4e487b7100000000000000000000000000000000000000000000000000000000600052603260045260246000fd5b7f45524332303a2064656372656173656420616c6c6f77616e63652062656c6f7760008201527f207a65726f000000000000000000000000000000000000000000000000000000602082015250565b6000612b39602583612300565b9150612b4482612add565b604082019050919050565b60006020820190508181036000830152612b6881612b2c565b9050919050565b7f4552433230566f7465733a207369676e61747572652065787069726564000000600082015250565b6000612ba5601d83612300565b9150612bb082612b6f565b602082019050919050565b60006020820190508181036000830152612bd481612b98565b9050919050565b6000608082019050612bf0600083018761257d565b612bfd60208301866125d4565b612c0a60408301856124bf565b612c1760608301846124bf565b95945050505050565b7f4552433230566f7465733a20696e76616c6964206e6f6e636500000000000000600082015250565b6000612c56601983612300565b9150612c6182612c20565b602082019050919050565b60006020820190508181036000830152612c8581612c49565b9050919050565b7f45524332305065726d69743a206578706972656420646561646c696e65000000600082015250565b6000612cc2601d83612300565b9150612ccd82612c8c565b602082019050919050565b60006020820190508181036000830152612cf181612cb5565b9050919050565b600060c082019050612d0d600083018961257d565b612d1a60208301886125d4565b612d2760408301876125d4565b612d3460608301866124bf565b612d4160808301856124bf565b612d4e60a08301846124bf565b979650505050505050565b7f45524332305065726d69743a20696e76616c6964207369676e61747572650000600082015250565b6000612d8f601e83612300565b9150612d9a82612d59565b602082019050919050565b60006020820190508181036000830152612dbe81612d82565b9050919050565b7f4552433230566f7465733a20746f74616c20737570706c79207269736b73206f60008201527f766572666c6f77696e6720766f74657300000000000000000000000000000000602082015250565b6000612e21603083612300565b9150612e2c82612dc5565b604082019050919050565b60006020820190508181036000830152612e5081612e14565b9050919050565b7f45524332303a206d696e7420746f20746865207a65726f206164647265737300600082015250565b6000612e8d601f83612300565b9150612e9882612e57565b602082019050919050565b60006020820190508181036000830152612ebc81612e80565b9050919050565b7f53616665436173743a2076616c756520646f65736e27742066697420696e203260008201527f3234206269747300000000000000000000000000000000000000000000000000602082015250565b6000612f1f602783612300565b9150612f2a82612ec3565b604082019050919050565b60006020820190508181036000830152612f4e81612f12565b9050919050565b7f53616665436173743a2076616c756520646f65736e27742066697420696e203360008201527f3220626974730000000000000000000000000000000000000000000000000000602082015250565b6000612fb1602683612300565b9150612fbc82612f55565b604082019050919050565b60006020820190508181036000830152612fe081612fa4565b9050919050565b7f45524332303a20617070726f76652066726f6d20746865207a65726f2061646460008201527f7265737300000000000000000000000000000000000000000000000000000000602082015250565b6000613043602483612300565b915061304e82612fe7565b604082019050919050565b6000602082019050818103600083015261307281613036565b9050919050565b7f45524332303a20617070726f766520746f20746865207a65726f20616464726560008201527f7373000000000000000000000000000000000000000000000000000000000000602082015250565b60006130d5602283612300565b91506130e082613079565b604082019050919050565b60006020820190508181036000830152613104816130c8565b9050919050565b7f45524332303a20696e73756666696369656e7420616c6c6f77616e6365000000600082015250565b6000613141601d83612300565b915061314c8261310b565b602082019050919050565b6000602082019050818103600083015261317081613134565b9050919050565b7f45524332303a207472616e736665722066726f6d20746865207a65726f20616460008201527f6472657373000000000000000000000000000000000000000000000000000000602082015250565b60006131d3602583612300565b91506131de82613177565b604082019050919050565b60006020820190508181036000830152613202816131c6565b9050919050565b7f45524332303a207472616e7366657220746f20746865207a65726f206164647260008201527f6573730000000000000000000000000000000000000000000000000000000000602082015250565b6000613265602383612300565b915061327082613209565b604082019050919050565b6000602082019050818103600083015261329481613258565b9050919050565b7f45524332303a207472616e7366657220616d6f756e742065786365656473206260008201527f616c616e63650000000000000000000000000000000000000000000000000000602082015250565b60006132f7602683612300565b91506133028261329b565b604082019050919050565b60006020820190508181036000830152613326816132ea565b9050919050565b600060408201905061334260008301856124bf565b61334f60208301846124bf565b9392505050565b600060a08201905061336b600083018861257d565b613378602083018761257d565b613385604083018661257d565b61339260608301856124bf565b61339f60808301846125d4565b9695505050505050565b7f4e487b7100000000000000000000000000000000000000000000000000000000600052601260045260246000fd5b60006133e382612413565b91506133ee83612413565b9250826133fe576133fd6133a9565b5b828204905092915050565b600081905092915050565b7f1901000000000000000000000000000000000000000000000000000000000000600082015250565b600061344a600283613409565b915061345582613414565b600282019050919050565b6000819050919050565b61347b61347682612573565b613460565b82525050565b600061348c8261343d565b9150613498828561346a565b6020820191506134a8828461346a565b6020820191508190509392505050565b60006080820190506134cd600083018761257d565b6134da6020830186612549565b6134e7604083018561257d565b6134f4606083018461257d565b95945050505050565b7f4e487b7100000000000000000000000000000000000000000000000000000000600052602160045260246000fd5b7f45434453413a20696e76616c6964207369676e61747572650000000000000000600082015250565b6000613562601883612300565b915061356d8261352c565b602082019050919050565b6000602082019050818103600083015261359181613555565b9050919050565b7f45434453413a20696e76616c6964207369676e6174757265206c656e67746800600082015250565b60006135ce601f83612300565b91506135d982613598565b602082019050919050565b600060208201905081810360008301526135fd816135c1565b9050919050565b7f45434453413a20696e76616c6964207369676e6174757265202773272076616c60008201527f7565000000000000000000000000000000000000000000000000000000000000602082015250565b6000613660602283612300565b915061366b82613604565b604082019050919050565b6000602082019050818103600083015261368f81613653565b9050919050565b7f45434453413a20696e76616c6964207369676e6174757265202776272076616c60008201527f7565000000000000000000000000000000000000000000000000000000000000602082015250565b60006136f2602283612300565b91506136fd82613696565b604082019050919050565b60006020820190508181036000830152613721816136e5565b905091905056fea26469706673582212201728c96becdc306d1cc1b4bc619eccdedefc2c336f8c25368c0b497891b3111a64736f6c63430008090033",
  "linkReferences": {},
  "deployedLinkReferences": {}
}